{
  "_format": "hh-sol-artifact-1",
  "contractName": "NFTMarket",
  "sourceName": "contracts/NFTMarket.sol",
  "abi": [
    {
      "inputs": [],
      "stateMutability": "nonpayable",
      "type": "constructor"
    },
    {
      "anonymous": false,
      "inputs": [
        {
          "indexed": true,
          "internalType": "uint256",
          "name": "itemId",
          "type": "uint256"
        },
        {
          "indexed": true,
          "internalType": "address",
          "name": "nftContract",
          "type": "address"
        },
        {
          "indexed": true,
          "internalType": "uint256",
          "name": "tokenId",
          "type": "uint256"
        },
        {
          "indexed": false,
          "internalType": "address",
          "name": "seller",
          "type": "address"
        },
        {
          "indexed": false,
          "internalType": "address",
          "name": "owner",
          "type": "address"
        },
        {
          "indexed": false,
          "internalType": "uint256",
          "name": "price",
          "type": "uint256"
        },
        {
          "indexed": false,
          "internalType": "bool",
          "name": "sold",
          "type": "bool"
        }
      ],
      "name": "MarketTokenListed",
      "type": "event"
    },
    {
      "anonymous": false,
      "inputs": [
        {
          "indexed": true,
          "internalType": "address",
          "name": "previousOwner",
          "type": "address"
        },
        {
          "indexed": true,
          "internalType": "address",
          "name": "newOwner",
          "type": "address"
        }
      ],
      "name": "OwnershipTransferred",
      "type": "event"
    },
    {
      "inputs": [
        {
          "internalType": "address",
          "name": "nftContract",
          "type": "address"
        },
        {
          "internalType": "uint256",
          "name": "itemId",
          "type": "uint256"
        }
      ],
      "name": "createMarketSale",
      "outputs": [],
      "stateMutability": "payable",
      "type": "function"
    },
    {
      "inputs": [],
      "name": "fetchListedNFT",
      "outputs": [
        {
          "components": [
            {
              "internalType": "uint256",
              "name": "itemId",
              "type": "uint256"
            },
            {
              "internalType": "address",
              "name": "nftContract",
              "type": "address"
            },
            {
              "internalType": "uint256",
              "name": "tokenId",
              "type": "uint256"
            },
            {
              "internalType": "address payable",
              "name": "seller",
              "type": "address"
            },
            {
              "internalType": "address payable",
              "name": "owner",
              "type": "address"
            },
            {
              "internalType": "uint256",
              "name": "price",
              "type": "uint256"
            },
            {
              "internalType": "bool",
              "name": "sold",
              "type": "bool"
            }
          ],
          "internalType": "struct NFTMarket.MarketToken[]",
          "name": "",
          "type": "tuple[]"
        }
      ],
      "stateMutability": "view",
      "type": "function"
    },
    {
      "inputs": [],
      "name": "fetchMyNFT",
      "outputs": [
        {
          "components": [
            {
              "internalType": "uint256",
              "name": "itemId",
              "type": "uint256"
            },
            {
              "internalType": "address",
              "name": "nftContract",
              "type": "address"
            },
            {
              "internalType": "uint256",
              "name": "tokenId",
              "type": "uint256"
            },
            {
              "internalType": "address payable",
              "name": "seller",
              "type": "address"
            },
            {
              "internalType": "address payable",
              "name": "owner",
              "type": "address"
            },
            {
              "internalType": "uint256",
              "name": "price",
              "type": "uint256"
            },
            {
              "internalType": "bool",
              "name": "sold",
              "type": "bool"
            }
          ],
          "internalType": "struct NFTMarket.MarketToken[]",
          "name": "",
          "type": "tuple[]"
        }
      ],
      "stateMutability": "view",
      "type": "function"
    },
    {
      "inputs": [],
      "name": "fetchUnsoldNFT",
      "outputs": [
        {
          "components": [
            {
              "internalType": "uint256",
              "name": "itemId",
              "type": "uint256"
            },
            {
              "internalType": "address",
              "name": "nftContract",
              "type": "address"
            },
            {
              "internalType": "uint256",
              "name": "tokenId",
              "type": "uint256"
            },
            {
              "internalType": "address payable",
              "name": "seller",
              "type": "address"
            },
            {
              "internalType": "address payable",
              "name": "owner",
              "type": "address"
            },
            {
              "internalType": "uint256",
              "name": "price",
              "type": "uint256"
            },
            {
              "internalType": "bool",
              "name": "sold",
              "type": "bool"
            }
          ],
          "internalType": "struct NFTMarket.MarketToken[]",
          "name": "",
          "type": "tuple[]"
        }
      ],
      "stateMutability": "view",
      "type": "function"
    },
    {
      "inputs": [],
      "name": "getListingFee",
      "outputs": [
        {
          "internalType": "uint256",
          "name": "",
          "type": "uint256"
        }
      ],
      "stateMutability": "view",
      "type": "function"
    },
    {
      "inputs": [
        {
          "internalType": "address",
          "name": "nftContract",
          "type": "address"
        },
        {
          "internalType": "uint256",
          "name": "tokenId",
          "type": "uint256"
        },
        {
          "internalType": "uint256",
          "name": "price",
          "type": "uint256"
        }
      ],
      "name": "listMarketItem",
      "outputs": [],
      "stateMutability": "payable",
      "type": "function"
    },
    {
      "inputs": [],
      "name": "owner",
      "outputs": [
        {
          "internalType": "address",
          "name": "",
          "type": "address"
        }
      ],
      "stateMutability": "view",
      "type": "function"
    },
    {
      "inputs": [],
      "name": "renounceOwnership",
      "outputs": [],
      "stateMutability": "nonpayable",
      "type": "function"
    },
    {
      "inputs": [
        {
          "internalType": "uint256",
          "name": "_listingFee",
          "type": "uint256"
        }
      ],
      "name": "setListingFee",
      "outputs": [],
      "stateMutability": "nonpayable",
      "type": "function"
    },
    {
      "inputs": [
        {
          "internalType": "address",
          "name": "newOwner",
          "type": "address"
        }
      ],
      "name": "transferOwnership",
      "outputs": [],
      "stateMutability": "nonpayable",
      "type": "function"
    }
  ],
  "bytecode": "0x608060405266038d7ea4c6800060045534801561001b57600080fd5b50600160008190555061004061003561004560201b60201c565b61004d60201b60201c565b610113565b600033905090565b6000600160009054906101000a900473ffffffffffffffffffffffffffffffffffffffff16905081600160006101000a81548173ffffffffffffffffffffffffffffffffffffffff021916908373ffffffffffffffffffffffffffffffffffffffff1602179055508173ffffffffffffffffffffffffffffffffffffffff168173ffffffffffffffffffffffffffffffffffffffff167f8be0079c531659141344cd1fd0a4f28419497f9722a3daafe3b4186f6b6457e060405160405180910390a35050565b611f21806101226000396000f3fe6080604052600436106100915760003560e01c8063b546bdd211610059578063b546bdd214610148578063b8fe6abe14610173578063c18763f71461019e578063c23b139e146101c9578063f2fde38b146101e557610091565b8063131dbd0914610096578063213c4e1a146100bf578063633d4815146100db578063715018a6146101065780638da5cb5b1461011d575b600080fd5b3480156100a257600080fd5b506100bd60048036038101906100b89190611727565b61020e565b005b6100d960048036038101906100d491906116d8565b610294565b005b3480156100e757600080fd5b506100f06105f8565b6040516100fd9190611a81565b60405180910390f35b34801561011257600080fd5b5061011b61090e565b005b34801561012957600080fd5b50610132610996565b60405161013f91906119ea565b60405180910390f35b34801561015457600080fd5b5061015d6109c0565b60405161016a9190611a81565b60405180910390f35b34801561017f57600080fd5b50610188610d70565b6040516101959190611b83565b60405180910390f35b3480156101aa57600080fd5b506101b3610d7a565b6040516101c09190611a81565b60405180910390f35b6101e360048036038101906101de919061169c565b61112a565b005b3480156101f157600080fd5b5061020c60048036038101906102079190611673565b6113de565b005b6102166114d6565b73ffffffffffffffffffffffffffffffffffffffff16610234610996565b73ffffffffffffffffffffffffffffffffffffffff161461028a576040517f08c379a000000000000000000000000000000000000000000000000000000000815260040161028190611b43565b60405180910390fd5b8060048190555050565b600260005414156102da576040517f08c379a00000000000000000000000000000000000000000000000000000000081526004016102d190611b63565b60405180910390fd5b600260008190555060008111610325576040517f08c379a000000000000000000000000000000000000000000000000000000000815260040161031c90611b03565b60405180910390fd5b6004543414610369576040517f08c379a000000000000000000000000000000000000000000000000000000000815260040161036090611aa3565b60405180910390fd5b61037360026114de565b600061037f60026114f4565b90506040518060e001604052808281526020018573ffffffffffffffffffffffffffffffffffffffff1681526020018481526020013373ffffffffffffffffffffffffffffffffffffffff168152602001600073ffffffffffffffffffffffffffffffffffffffff16815260200183815260200160001515815250600560008381526020019081526020016000206000820151816000015560208201518160010160006101000a81548173ffffffffffffffffffffffffffffffffffffffff021916908373ffffffffffffffffffffffffffffffffffffffff1602179055506040820151816002015560608201518160030160006101000a81548173ffffffffffffffffffffffffffffffffffffffff021916908373ffffffffffffffffffffffffffffffffffffffff16021790555060808201518160040160006101000a81548173ffffffffffffffffffffffffffffffffffffffff021916908373ffffffffffffffffffffffffffffffffffffffff16021790555060a0820151816005015560c08201518160060160006101000a81548160ff0219169083151502179055509050508373ffffffffffffffffffffffffffffffffffffffff166323b872dd3330866040518463ffffffff1660e01b815260040161056093929190611a05565b600060405180830381600087803b15801561057a57600080fd5b505af115801561058e573d6000803e3d6000fd5b50505050828473ffffffffffffffffffffffffffffffffffffffff16827f460ace76a381fbb9c0c3fe23921ffae55fd16b952823368e2cee1dba2ac003de3360008760006040516105e29493929190611a3c565b60405180910390a4506001600081905550505050565b6060600061060660026114f4565b9050600061061460036114f4565b61061e60026114f4565b6106289190611c49565b90506000808267ffffffffffffffff81111561066d577f4e487b7100000000000000000000000000000000000000000000000000000000600052604160045260246000fd5b6040519080825280602002602001820160405280156106a657816020015b6106936115c8565b81526020019060019003908161068b5790505b50905060005b8481101561090357600073ffffffffffffffffffffffffffffffffffffffff16600560006001846106dd9190611bf3565b815260200190815260200160002060040160009054906101000a900473ffffffffffffffffffffffffffffffffffffffff1673ffffffffffffffffffffffffffffffffffffffff1614156108f057600060018261073a9190611bf3565b90506000600560008381526020019081526020016000209050806040518060e0016040529081600082015481526020016001820160009054906101000a900473ffffffffffffffffffffffffffffffffffffffff1673ffffffffffffffffffffffffffffffffffffffff1673ffffffffffffffffffffffffffffffffffffffff168152602001600282015481526020016003820160009054906101000a900473ffffffffffffffffffffffffffffffffffffffff1673ffffffffffffffffffffffffffffffffffffffff1673ffffffffffffffffffffffffffffffffffffffff1681526020016004820160009054906101000a900473ffffffffffffffffffffffffffffffffffffffff1673ffffffffffffffffffffffffffffffffffffffff1673ffffffffffffffffffffffffffffffffffffffff168152602001600582015481526020016006820160009054906101000a900460ff1615151515815250508486815181106108d3577f4e487b7100000000000000000000000000000000000000000000000000000000600052603260045260246000fd5b60200260200101819052506001856108eb9190611bf3565b945050505b80806108fb90611cd7565b9150506106ac565b508094505050505090565b6109166114d6565b73ffffffffffffffffffffffffffffffffffffffff16610934610996565b73ffffffffffffffffffffffffffffffffffffffff161461098a576040517f08c379a000000000000000000000000000000000000000000000000000000000815260040161098190611b43565b60405180910390fd5b6109946000611502565b565b6000600160009054906101000a900473ffffffffffffffffffffffffffffffffffffffff16905090565b606060006109ce60026114f4565b905060008060005b83811015610a77573373ffffffffffffffffffffffffffffffffffffffff1660056000600184610a069190611bf3565b815260200190815260200160002060030160009054906101000a900473ffffffffffffffffffffffffffffffffffffffff1673ffffffffffffffffffffffffffffffffffffffff161415610a6457600183610a619190611bf3565b92505b8080610a6f90611cd7565b9150506109d6565b5060008267ffffffffffffffff811115610aba577f4e487b7100000000000000000000000000000000000000000000000000000000600052604160045260246000fd5b604051908082528060200260200182016040528015610af357816020015b610ae06115c8565b815260200190600190039081610ad85790505b50905060005b83811015610d65573373ffffffffffffffffffffffffffffffffffffffff1660056000600184610b299190611bf3565b815260200190815260200160002060030160009054906101000a900473ffffffffffffffffffffffffffffffffffffffff1673ffffffffffffffffffffffffffffffffffffffff161415610d5257600060056000600184610b8a9190611bf3565b81526020019081526020016000206000015490506000600560008381526020019081526020016000209050806040518060e0016040529081600082015481526020016001820160009054906101000a900473ffffffffffffffffffffffffffffffffffffffff1673ffffffffffffffffffffffffffffffffffffffff1673ffffffffffffffffffffffffffffffffffffffff168152602001600282015481526020016003820160009054906101000a900473ffffffffffffffffffffffffffffffffffffffff1673ffffffffffffffffffffffffffffffffffffffff1673ffffffffffffffffffffffffffffffffffffffff1681526020016004820160009054906101000a900473ffffffffffffffffffffffffffffffffffffffff1673ffffffffffffffffffffffffffffffffffffffff1673ffffffffffffffffffffffffffffffffffffffff168152602001600582015481526020016006820160009054906101000a900460ff161515151581525050848681518110610d35577f4e487b7100000000000000000000000000000000000000000000000000000000600052603260045260246000fd5b6020026020010181905250600185610d4d9190611bf3565b945050505b8080610d5d90611cd7565b915050610af9565b508094505050505090565b6000600454905090565b60606000610d8860026114f4565b905060008060005b83811015610e31573373ffffffffffffffffffffffffffffffffffffffff1660056000600184610dc09190611bf3565b815260200190815260200160002060040160009054906101000a900473ffffffffffffffffffffffffffffffffffffffff1673ffffffffffffffffffffffffffffffffffffffff161415610e1e57600183610e1b9190611bf3565b92505b8080610e2990611cd7565b915050610d90565b5060008267ffffffffffffffff811115610e74577f4e487b7100000000000000000000000000000000000000000000000000000000600052604160045260246000fd5b604051908082528060200260200182016040528015610ead57816020015b610e9a6115c8565b815260200190600190039081610e925790505b50905060005b8381101561111f573373ffffffffffffffffffffffffffffffffffffffff1660056000600184610ee39190611bf3565b815260200190815260200160002060040160009054906101000a900473ffffffffffffffffffffffffffffffffffffffff1673ffffffffffffffffffffffffffffffffffffffff16141561110c57600060056000600184610f449190611bf3565b81526020019081526020016000206000015490506000600560008381526020019081526020016000209050806040518060e0016040529081600082015481526020016001820160009054906101000a900473ffffffffffffffffffffffffffffffffffffffff1673ffffffffffffffffffffffffffffffffffffffff1673ffffffffffffffffffffffffffffffffffffffff168152602001600282015481526020016003820160009054906101000a900473ffffffffffffffffffffffffffffffffffffffff1673ffffffffffffffffffffffffffffffffffffffff1673ffffffffffffffffffffffffffffffffffffffff1681526020016004820160009054906101000a900473ffffffffffffffffffffffffffffffffffffffff1673ffffffffffffffffffffffffffffffffffffffff1673ffffffffffffffffffffffffffffffffffffffff168152602001600582015481526020016006820160009054906101000a900460ff1615151515815250508486815181106110ef577f4e487b7100000000000000000000000000000000000000000000000000000000600052603260045260246000fd5b60200260200101819052506001856111079190611bf3565b945050505b808061111790611cd7565b915050610eb3565b508094505050505090565b60026000541415611170576040517f08c379a000000000000000000000000000000000000000000000000000000000815260040161116790611b63565b60405180910390fd5b60026000819055506000600560008381526020019081526020016000206005015490506000600560008481526020019081526020016000206002015490508134146111f0576040517f08c379a00000000000000000000000000000000000000000000000000000000081526004016111e790611ac3565b60405180910390fd5b60006005600085815260200190815260200160002060030160009054906101000a900473ffffffffffffffffffffffffffffffffffffffff1673ffffffffffffffffffffffffffffffffffffffff163460405161124c906119d5565b60006040518083038185875af1925050503d8060008114611289576040519150601f19603f3d011682016040523d82523d6000602084013e61128e565b606091505b50509050806112d2576040517f08c379a00000000000000000000000000000000000000000000000000000000081526004016112c990611b23565b60405180910390fd5b8473ffffffffffffffffffffffffffffffffffffffff166323b872dd3033856040518463ffffffff1660e01b815260040161130f93929190611a05565b600060405180830381600087803b15801561132957600080fd5b505af115801561133d573d6000803e3d6000fd5b50505050336005600086815260200190815260200160002060040160006101000a81548173ffffffffffffffffffffffffffffffffffffffff021916908373ffffffffffffffffffffffffffffffffffffffff16021790555060016005600086815260200190815260200160002060060160006101000a81548160ff0219169083151502179055506113cf60036114de565b50505060016000819055505050565b6113e66114d6565b73ffffffffffffffffffffffffffffffffffffffff16611404610996565b73ffffffffffffffffffffffffffffffffffffffff161461145a576040517f08c379a000000000000000000000000000000000000000000000000000000000815260040161145190611b43565b60405180910390fd5b600073ffffffffffffffffffffffffffffffffffffffff168173ffffffffffffffffffffffffffffffffffffffff1614156114ca576040517f08c379a00000000000000000000000000000000000000000000000000000000081526004016114c190611ae3565b60405180910390fd5b6114d381611502565b50565b600033905090565b6001816000016000828254019250508190555050565b600081600001549050919050565b6000600160009054906101000a900473ffffffffffffffffffffffffffffffffffffffff16905081600160006101000a81548173ffffffffffffffffffffffffffffffffffffffff021916908373ffffffffffffffffffffffffffffffffffffffff1602179055508173ffffffffffffffffffffffffffffffffffffffff168173ffffffffffffffffffffffffffffffffffffffff167f8be0079c531659141344cd1fd0a4f28419497f9722a3daafe3b4186f6b6457e060405160405180910390a35050565b6040518060e0016040528060008152602001600073ffffffffffffffffffffffffffffffffffffffff16815260200160008152602001600073ffffffffffffffffffffffffffffffffffffffff168152602001600073ffffffffffffffffffffffffffffffffffffffff168152602001600081526020016000151581525090565b60008135905061165881611ebd565b92915050565b60008135905061166d81611ed4565b92915050565b60006020828403121561168557600080fd5b600061169384828501611649565b91505092915050565b600080604083850312156116af57600080fd5b60006116bd85828601611649565b92505060206116ce8582860161165e565b9150509250929050565b6000806000606084860312156116ed57600080fd5b60006116fb86828701611649565b935050602061170c8682870161165e565b925050604061171d8682870161165e565b9150509250925092565b60006020828403121561173957600080fd5b60006117478482850161165e565b91505092915050565b600061175c8383611929565b60e08301905092915050565b61177181611c8f565b82525050565b61178081611c7d565b82525050565b61178f81611c7d565b82525050565b60006117a082611bae565b6117aa8185611bc6565b93506117b583611b9e565b8060005b838110156117e65781516117cd8882611750565b97506117d883611bb9565b9250506001810190506117b9565b5085935050505092915050565b6117fc81611ca1565b82525050565b61180b81611ca1565b82525050565b600061181e602183611be2565b915061182982611d4f565b604082019050919050565b6000611841601883611be2565b915061184c82611d9e565b602082019050919050565b6000611864602683611be2565b915061186f82611dc7565b604082019050919050565b6000611887600d83611be2565b915061189282611e16565b602082019050919050565b60006118aa601683611be2565b91506118b582611e3f565b602082019050919050565b60006118cd602083611be2565b91506118d882611e68565b602082019050919050565b60006118f0600083611bd7565b91506118fb82611e91565b600082019050919050565b6000611913601f83611be2565b915061191e82611e94565b602082019050919050565b60e08201600082015161193f60008501826119b7565b5060208201516119526020850182611777565b50604082015161196560408501826119b7565b5060608201516119786060850182611768565b50608082015161198b6080850182611768565b5060a082015161199e60a08501826119b7565b5060c08201516119b160c08501826117f3565b50505050565b6119c081611ccd565b82525050565b6119cf81611ccd565b82525050565b60006119e0826118e3565b9150819050919050565b60006020820190506119ff6000830184611786565b92915050565b6000606082019050611a1a6000830186611786565b611a276020830185611786565b611a3460408301846119c6565b949350505050565b6000608082019050611a516000830187611786565b611a5e6020830186611786565b611a6b60408301856119c6565b611a786060830184611802565b95945050505050565b60006020820190508181036000830152611a9b8184611795565b905092915050565b60006020820190508181036000830152611abc81611811565b9050919050565b60006020820190508181036000830152611adc81611834565b9050919050565b60006020820190508181036000830152611afc81611857565b9050919050565b60006020820190508181036000830152611b1c8161187a565b9050919050565b60006020820190508181036000830152611b3c8161189d565b9050919050565b60006020820190508181036000830152611b5c816118c0565b9050919050565b60006020820190508181036000830152611b7c81611906565b9050919050565b6000602082019050611b9860008301846119c6565b92915050565b6000819050602082019050919050565b600081519050919050565b6000602082019050919050565b600082825260208201905092915050565b600081905092915050565b600082825260208201905092915050565b6000611bfe82611ccd565b9150611c0983611ccd565b9250827fffffffffffffffffffffffffffffffffffffffffffffffffffffffffffffffff03821115611c3e57611c3d611d20565b5b828201905092915050565b6000611c5482611ccd565b9150611c5f83611ccd565b925082821015611c7257611c71611d20565b5b828203905092915050565b6000611c8882611cad565b9050919050565b6000611c9a82611cad565b9050919050565b60008115159050919050565b600073ffffffffffffffffffffffffffffffffffffffff82169050919050565b6000819050919050565b6000611ce282611ccd565b91507fffffffffffffffffffffffffffffffffffffffffffffffffffffffffffffffff821415611d1557611d14611d20565b5b600182019050919050565b7f4e487b7100000000000000000000000000000000000000000000000000000000600052601160045260246000fd5b7f494e434f52524543545f5041594d454e545f464f525f4c495354494e475f464560008201527f4500000000000000000000000000000000000000000000000000000000000000602082015250565b7f494e434f52524543545f5041594d454e545f414d4f554e540000000000000000600082015250565b7f4f776e61626c653a206e6577206f776e657220697320746865207a65726f206160008201527f6464726573730000000000000000000000000000000000000000000000000000602082015250565b7f494e56414c49445f505249434500000000000000000000000000000000000000600082015250565b7f5041594d454e545f464f525f4e46545f4641494c454400000000000000000000600082015250565b7f4f776e61626c653a2063616c6c6572206973206e6f7420746865206f776e6572600082015250565b50565b7f5265656e7472616e637947756172643a207265656e7472616e742063616c6c00600082015250565b611ec681611c7d565b8114611ed157600080fd5b50565b611edd81611ccd565b8114611ee857600080fd5b5056fea264697066735822122075040c2e6efd2138a32f34d43486e80097738771ef09c85ed661c9f20e00bf7264736f6c63430008040033",
  "linkReferences": {},
  "deployedLinkReferences": {}
}